:1000000000100010F1000000D1000000D10000003D
:1000100000000000000000000000000000000000E0
:10002000000000000000000000000000D1000000FF
:100030000000000000000000D10000009518000042
:10004000E1000000E1000000E1000000E10000002C
:10005000E1000000E1000000E1000000E10000001C
:10006000E1000000E1000000E1000000E10000000C
:10007000E1000000E1000000E1000000E1000000FC
:10008000E1000000E1000000E1000000E1000000EC
:10009000E1000000E100000000000000000000009E
:1000A000E1000000E1000000E100000000000000AD
:1000B000E1000000E1000000E1000000E1000000BC
:1000C00010B501F015FC01F0D8F801F0E0F810BD12
:1000D0002021024A13688B431360FEE7FC3F015066
:1000E0000121024A13688B431360FEE7FC3F025074
:1000F000132200200325204B20491A60204B123A7E
:10010000204E086018601A603468AC432500022451
:100110002C4334601C4C802520601C4C20602260E5
:1001200043241B4804601B4C2068A843206008003F
:100130001900194C23681342FCD0184B184C1A6054
:100140000323036000230B600A601649164A174810
:10015000116017491A188A4207D30021154B164A15
:10016000934206D3FFF7ACFFFEE7E5580433156072
:10017000F0E702C3F4E7C0465081044070800440B9
:100180007480044010C00340408004404480044018
:1001900008800440388204400C8004407880044089
:1001A000681F00005F000100808004400000001014
:1001B0000000001000000010AC06001010B5080090
:1001C00001F002FB10BD10B501F0FEFA10BD10B534
:1001D00001F012FB10BD10B501F014FB10BD70470B
:1001E000704700000021415610B5172918D1436807
:1001F0009C68200001F016FB21000200012000F0A5
:100200005BF9200001F00EFB002808D0200001F06F
:1002100009FB2418013C20780A384342584110BD9C
:10022000024801F035F90020F9E7C046351B00000F
:10023000F7B50E00150001240A27AC4200DDF7BD1A
:10024000E0003018FFF7CEFF002806D16B460122F0
:10025000D91D10000F7000F02FF90134EDE710B533
:1002600008000C0000F089F90223237010BD10B5BE
:100270000C000831200000F038F9002805D02000DB
:1002800000F07BF90323237010BD200000F075F906
:100290000223F8E770B50C000831200000F025F9C2
:1002A0000500200000F069F90423A580237070BDCB
:1002B00037B508000C0000F039FF007801F054FA5F
:1002C0006D460100280000F024FA200000F055F9E6
:1002D0000CCD0CC437BD000070B50D001600012414
:1002E000B44200DD70BDE300EA56062A08D1EB18DF
:1002F000187901F039FA034A0100686800F09CFFA0
:100300000134EDE7DF010000F0B50E00012585B0F6
:1003100000900192019B9D4201DD05B0F0BDEB0014
:10032000F256062A26D1F318187901F01DFA0700B3
:100330000100114A706800F07FFF380001F072FA86
:10034000811C0098FFF73AFF041EE6D0390001F047
:1003500072FA0A49200001F080FA2200009902A8EE
:1003600001F0D2F97068064A210000F065FF200014
:10037000FFF731FF0135CDE7DF010000281B00004A
:10038000E1010000472370B592B003AC6B44636099
:100390001B4B0D00E360002319000AAE0396A66014
:1003A000E218013311740C2BFAD1200001F07AF815
:1003B00000280EDC00236C46059A2800137000F01C
:1003C000DCF82000310000F0A4F90CCC0CC512B010
:1003D00070BD237C732B07D0782BE6D1102269687F
:1003E000200001F063F8E0E76B685B68187801F0C3
:1003F000BBF920220100200001F056F8D5E7C046E5
:100400002A1B000010B50021012000F0EDFE014B79
:10041000186010BD5C0200107047704710B50800EE
:100420000C0000F0AAF8042323700023A38010BD61
:10043000704710B508000C0000F09FF804232370EB
:100440000023A38010BD10B508000C0000F095F843
:10045000042323700023A38010BD10B50C23C85EB5
:1004600001F038FA10BD10B50C23C85E01F024FA73
:1004700010BD10B508000C0000F07FF804232370B5
:1004800001F02EFAA08010BD704710B508000C00D6
:1004900000F073F8042323700023A38010BD70477D
:1004A00010B508000C0000F068F804232370002346
:1004B000A38010BD70477047012A03D0262A01DCB3
:1004C00000238B541000704770B505001020FFF713
:1004D0007AFE041E07D001230380280001F039F9B9
:1004E00000232071A360200070BD00230022C356AA
:1004F0008A5610B5040093420CD0002B03D118008B
:10050000012A05D110BD012B02D100208242F9D071
:10051000981AF7E7581E14280CD801F005FA23237F
:10052000230D0B0D130B0B0B0B0B0B0B0B0B0B0BF7
:100530000B1313000120E5E70423E05E04228B5E29
:10054000C01ADFE762684B689A4205D006D80123DB
:100550005B420020C018D5E70023FAE70123022000
:100560005B42F7E70020CDE70378143B052B03D867
:10057000426813880133138070470023037070476B
:10058000013883B200202D2B02D8024A9B009858D4
:100590007047C046441B00008B000249C9184868D8
:1005A0007047C046FC1B000070470000024B591802
:1005B0007A3108787047C046FC1B0000024B59187E
:1005C000783108787047C046FC1B00004020704717
:1005D00070B505000024094AA300D158280001F095
:1005E00031F9002804D1FF30002C00D0E0B270BDFA
:1005F0000134402CEFD1FF20F9E7C0461C1E00005B
:10060000054B8900C9580023CA5CC254002A02D095
:100610000133102BF8D170471C1E0000020010B5EA
:100620001378141A8B4202D10019407810BD02329F
:10063000002BF5D11800F9E710B500B2FFF7A0FFC5
:1006400010BD0000431E10B50020092B0AD8180069
:1006500001F06AF905150F090B0D131711190B4855
:10066000FFF7DCFF10BD0A48FAE70A48F8E70A4836
:10067000F6E70A48F4E70A48F2E70A48F0E70A48CA
:10068000EEE70A48ECE70A48EAE7C0469C1C00008F
:10069000C71C0000771C0000D91C0000991C00003A
:1006A000761C00007A1C0000CD1C0000D61C000047
:1006B000CC1C0000F7B517000191082200210500AD
:1006C00001F0E1F80C20FFF77EFD041E03D1172393
:1006D0002B702800FEBD781CFFF775FD061E03D1A8
:1006E0002000FFF778FDF2E7012323801633A37083
:1006F000019BA780A060002B04D1037017236C60BE
:100700002B70E6E73A00019901F0B4F80023F355A5
:10071000F4E7002270B505000C00914203D00800F8
:1007200001F080F8020028002100FFF7C3FF280035
:1007300070BDF8B505004C685668A288B3880021E2
:10074000D218FFF7B7FF6F68002F0CD0A288A168FE
:10075000B86801F08FF8B288A388B8680132C01871
:10076000B16801F087F82800F8BD0000044B10B50F
:100770001968022000F038FD024B186010BDC04619
:100780005C0200104C0200109A2270B50D4C520011
:100790002000002101F077F823780B4A63702300D2
:1007A0000833DA6707230021084D23712B68A02244
:1007B000A3600748618001F066F82B68FC3423636E
:1007C00070BDC04600000010040000105C02001064
:1007D0008C000010020030B5030005008832148838
:1007E000083524018C331B19EC6F5C6044781C7055
:1007F00044881973FC30016B5C8099601388013365
:10080000138030BDC30D9C46F0B5470287B0FB0D89
:10081000039363467F22DC00029404AD0C1901941B
:100820002C00C6091640019A88CA88C463467F22F4
:100830009B1901331040202814D021281AD06B4670
:10084000204C197B6078FFF7B9FE69680200070049
:10085000049800F0ADFC051E15D139001A4800F0CF
:1008600017FE0DE0DB00CC182000FFF786FE012309
:100870002370E4E7DB005B56012BE0D0152BDED0C4
:10088000002007B0F0BDFF2807DCFFF7D5FE03000E
:100890003200019920009847F2E70123C7781F40F2
:1008A00001D0C368F4E720003100FFF793FF6780B1
:1008B0002B7B63700834E26F029B94466344E367CA
:1008C000DEE7C046000000101C1F0000F0B58FB02E
:1008D000B84D7F27A9786878FFF75EFE6B8804BA69
:1008E00001336B802B00274008333A002100B248C7
:1008F000DE6F00F0CDFD502F00D972E3380001F01B
:100900001DF8890051005C006D007A0096009F0080
:10091000AB00B300BB00CF0070037003DC00E80045
:1009200070037003EE000001700370030B012701D8
:1009300041013B01480170037003700370037003B1
:100940007003BE01BE0170034E01700370036501A8
:10095000700370037A0170039E01AC01C301D101E1
:10096000E401F20105021B02300246025E0274023B
:100970008900700370037003700370039002AD026E
:100980007003E402890070038900700305033403D7
:1009900070035F0370036B037003700370037003D5
:1009A00070036B03E50DED0075192800FFF7E5FDF9
:1009B0006402E40DE400361948E0E10DC900761840
:1009C0003000E409FFF7D9FDE3B26A780021300076
:1009D000FFF7EAFD08AB06CB06C61BE0E10DC90038
:1009E00076183000FFF7C9FD04233370734BE40918
:1009F000E418B4800EE0E109C9B26878FFF7DEFDC3
:100A0000E40DE400361905003000FFF7B6FD0623BB
:100A1000B58033709822674B52009A56002A00D155
:100A200056E79821002249005A540FB0F0BDE40D5A
:100A3000E40036193000FFF7A0FD01233370E9E729
:100A4000E50DED0075192800FFF797FD3000FFF761
:100A50008BFD0CCE0CC5DDE7E40DE400361930004B
:100A6000FFF78BFD0323E9E7E40DE40036193000BE
:100A7000FFF783FD0223E1E7E109C9B26878FFF7D8
:100A80009DFD0500E40DE4003619300002ACFFF7CF
:100A900074FD2900200000F079FD0CCC0CC6B9E7EC
:100AA000E109E40DC9B26878E400FFF787FDA159B8
:100AB0003419626800F018FDACE7E109E40DE400C8
:100AC000C9B268783619FFF779FD3000FFF755FD98
:100AD00080E7E409E1B26878FFF770FD9AE7E10981
:100AE000C9B26878FFF76AFD0500E40DE400361925
:100AF000300002ACFFF741FD2900200000F06AFD44
:100B0000CBE7E109C9B26878FFF758FDE10DC900EC
:100B1000711800F013FD7DE77F218835E2092B88ED
:100B20000A4027495B18E10D9B1AC900254A76182F
:100B30001B019B1830005D68FFF71FFD6402E40D88
:100B4000E4002D192800FFF70FFD0CCD0CC661E75E
:100B50007F218835E2090A402B88194965025B1814
:100B60009B1A184A1B019B185B68ED0DED005D197F
:100B70002800FFF702FD1CE7E30DDB009B57022B6B
:100B800000DC47E76A88104BE409D21814196C801E
:100B900040E7E30DDB009B57022BF3DD3AE7002132
:100BA0002800FFF717FE00236B8073681B7B6B70B8
:100BB00030E7C046000000102F1F00000180FFFF3B
:100BC000FEFFFF0F8C0000100080FFFF1F26230D8B
:100BD000334200D11EE72B0088331A88C74B688840
:100BE000D218C74B1201D218127B640E121826407D
:100BF000921B6A800EE708AF3B00E40DE400341955
:100C000006CC06C33800FFF7AFFC3000FFF7B5FC99
:100C100029000CCF0CC62A0088310B880832013B12
:100C20009BB20B80B6491B015B185968D1671A78D3
:100C30006A705A889B686A80FC352B63EAE6082351
:100C40003500F356E40D0835012B00D1E2E6E4004F
:100C500036193000FFF791FC74E70021E30DDB004B
:100C6000F218515604290AD100210833F3185956B5
:100C7000042904D191889B88CB189380CAE631005F
:100C80002000FFF7BFFDC5E60023E10DC90076187F
:100C9000F356042B00D0BDE6E4097B33B0881C403A
:100CA0002418A6E60023E50DED007219D356083589
:100CB0007519042B00D0ACE00023EB56042B00D0B8
:100CC000A7E09388A9885B1AD7E70023E10DC90044
:100CD0007618F356042B00D09CE6E4097B33B288E7
:100CE0001C40141B85E60023E50DED007219D35658
:100CF00008357519042B00D08BE00023EB56042B2C
:100D000000D086E09388A9884B43B6E70023E50D21
:100D1000ED007719FB5608357519042B00D078E0E3
:100D20000023EB56042B74D10423F85E0423E95E00
:100D300000F00EFEB8806DE6E40DE40035190834CD
:100D4000361931002800FFF7D0FB040063425C41F4
:100D50003000FFF712FC02342800FFF70EFC2C7065
:100D600058E60022E50DED0073199A5608357519FD
:100D7000042A4ED10022AA56042A4AD10422985E9F
:100D80000422A95E022288422DDA01322BE00023E0
:100D9000E50DED007219D35608357519042B38D1BD
:100DA0000023EB56042B34D10423E85E0423D15EE8
:100DB000C417CB0F88426341023313702AE6002226
:100DC000E50DED0073199A5608357519042A20D1DE
:100DD0000022AA56042A1CD10422985E0422A95E8D
:100DE00002228842D1DC1A7014E60023E50DED00E2
:100DF0007219D35608357519042B0AD10023EB5606
:100E0000042B06D10423E95E0423D05ECC0FC31764
:100E1000D0E731002000FFF7F5FC2800FFF7ADFB1D
:100E2000F8E50E2702ABFF1800236A78E50DE40908
:100E30003B803900E3B208A806ACFFF7B5FB3A885F
:100E400008A92000FFF736FC6368002B00D1E1E51C
:100E5000ED0076193000FFF790FB1EE66102CB0D26
:100E60002848019300F075FCE40DE40034190700F4
:100E700002006168206800F09BF9002807D0C37861
:100E8000DB0704D5C3680022210028009847019B96
:100E90003A00D90076183068716800F089F90028A6
:100EA00007D0C378DB0704D5C368002231002800CF
:100EB000984708AD320021002800FFF73AFC2000D7
:100EC000FFF75BFB0CCD0CC4A4E50F48FFF7FCFA61
:100ED0000122C378E1039343C3700700090E6878C9
:100EE000FFF764FBE40DE400341938732000FFF7CA
:100EF00044FB1523676023708CE5C046FFFFFF0F9E
:100F00008C000010361F00003B1F00003E4DE30D1B
:100F10002800DB000193F61808AB06CE06C32E00AE
:100F20002F0088300388394A083619018A18F16F72
:100F3000FC3751606978013311706988E409518088
:100F4000396B91600021117369800380E1B22878C8
:100F5000FFF72CFBF26F019B94466870634408A86E
:100F6000F36700F0E3F8386354E50022E10DC900AF
:100F700073189A56072A00D04CE508317218A1025E
:100F8000090E68785F6801925668FFF717FB3B000F
:100F90000400BA680833002A0AD10122F3783471B8
:100FA0009343F370BB68019AB360BE60002304E70B
:100FB00010799168A04219D013000A000833EAE7BB
:100FC000E40DE40036193000FFF7D7FA0723FC35AB
:100FD00033702B6B73601DE5982201235200AB54D4
:100FE00018E539000A4800F053FA13E519600121A9
:100FF000D3780B40D1D10893152308A80370426021
:10100000FFF7BBFAC9E7C046000000108C000010D3
:101010003E1F000070B50D0011000400FFF7DAFB61
:10102000002363806B681B7B63700834E56770BDC9
:10103000472370B592B06B440493144B0C00069395
:10104000002319000AAE0396059603AAD2180133AD
:1010500011740C2BF9D103A800F024FA00280EDC3F
:1010600000236D46059A20001370FFF786FA2800CA
:101070003100FFF74EFB0CCD0CC412B070BD102236
:10108000616803A800F012FAE5E7C046551F0000AA
:1010900037B500226C460D0020001100FFF70AFB57
:1010A0000CCC0CC537BD000037B56C460D002000D8
:1010B0000249FFF72EFB0CCC0CC537BD4F1F0000BB
:1010C00037B56C460D0020000249FFF722FB0CCC1F
:1010D0000CC537BD621F000010B50021042000F0D0
:1010E00083F8014B186010BD4402001010B50021B8
:1010F000032000F079F8014B186010BD6002001069
:1011000010B50021052000F06FF8014B186010BDEC
:101110005002001010B50021062000F065F8014BC8
:10112000186010BD48020010704700000300002046
:10113000185600B50138172823D800F0F5FB110F19
:101140000C132215182222222222222222222222BB
:1011500022171A1C1E200C4B186809E00B4BFBE7EA
:101160000B4BF9E70B4BF7E70B4BF5E75B68586860
:1011700000BD0A4BF0E70A4BEEE70A4BECE70A4BDF
:10118000EAE70A4BE8E7C0464802001050020010A8
:1011900060020010640200105802001044020010A7
:1011A000540200104C020010680200105C02001093
:1011B00037B50090684601911500FFF7B7FF0400AE
:1011C000002C01D120003EBD20782900FFF73AFA1B
:1011D0000028F8D1A068002801D16468F0E70379FD
:1011E000AB42F0D08068F6E77FB50E00C5B2FE28AE
:1011F00002DD00F0AEFA05002900684600F0EAF9C9
:101200006B461B785BB2012B14D10C210020FEF73A
:10121000D5FF041E0BD0002302A905704660836031
:1012200002934860073328000B7000F087F9200014
:1012300004B070BD019CFAE770B504000800150009
:10124000FFF742F90123C2781343C370A368836098
:10125000A060C56070BD10B5FFF7D4F8FFF786FA3F
:1012600000F008F9FFF742FFFFF736FFFFF748FFEE
:10127000FFF750FF00F09EFA10BD10B5FFF71AF906
:1012800000F0CCF9FFF7E7FFFFF77EFA10BD10B5CD
:10129000FFF71CFB10BD70B58B890C0004250800FE
:1012A0001F2B0BD8FFF769F90422A35E0C21625EA5
:1012B0002570134101221340A38070BDFFF75DF933
:1012C00025700023F8E770B508000C000423CD5EFC
:1012D000FFF753F904236D42A580237070BD0823E6
:1012E000CB5670B50C00042B0CD10C23CA5E002326
:1012F000D543ED0F9A4206DC2000FFF73EF90423A8
:10130000A580237070BD0420215E01334D43F1E7B9
:1013100070B508000C000C23CD5EFFF72EF90423F6
:10132000290023700423E05E00F0F8FBA18070BD6B
:1013300070B508000C000C23CD5EFFF71EF90423E6
:101340002370A3882B40A38070BD70B508000C00EB
:101350000C23CD5EFFF711F904232370A3881D43EE
:10136000A58070BD70B508000C000C23CD5EFFF7A2
:1013700004F904232370A3885D40A58070BD70B577
:101380000423CD5E08000C00ED43FFF7F6F80423BC
:10139000A580237070BD70B508000D000C23CC5ED5
:1013A000FFF7EBF804232B700423EA5E0023202CC4
:1013B00003DC9C4203DB1300A340AB8070BD210023
:1013C0002031FADB130064422341F6E770B50C23A9
:1013D000CC5E08000D00FFF7D0F8042321002B702D
:1013E0000423EA5E0023203104DB9C4204DC13006A
:1013F0006442A340AB8070BD202CFBDC1300234172
:10140000F8E704228B5E002B01DA5B428B80704789
:101410007047704770B50C008EB0002A27D00C239F
:10142000CA5E931E222B20D81B2307A86B4443605F
:1014300000231E0003AD07958560C360C11801330A
:101440000E740C2BFAD1583303740423E15E00F0C0
:101450002DF8099B29001E7001AE3000FFF759F9E5
:101460002000FFF78AF80CCE0CC40EB070BD0A2223
:10147000DAE70000044B10B519680720FFF7B4FE47
:10148000024B186010BDC0465C02001064020010E0
:101490000FB400B58BB06846FFF70DF80BB008BC71
:1014A00004B01847012070470120704701207047A1
:1014B0000B4BF0B51D680C2600230A4A9D4203DC45
:1014C00001235B421800F0BD34005C43A7187F780D
:1014D000874202D1A45C8C42F4D00133EEE7C046CF
:1014E0003401001038010010F7B56D46009101215C
:1014F00006006A60FFF7DCFF0E4C0700431C11D1A9
:101500000D4B1F687A1C1A600C235F430B3BE3559D
:101510002B00E41966700434280006CB06C4FFF7DC
:1015200023F8F7BD0C20784304302018FFF725F886
:10153000EAE7C0463801001034010010F8B50D008C
:1015400002210600FFF7B4FF0E4C0700431C11D127
:101550000D4B1F687A1C1A600C235F430A3BE3554E
:101560002B00E41966700434280006CB06C4FEF78D
:10157000FBFFF8BD0C20784304302018FEF7FDFF78
:10158000EAE7C046380100103401001073B50500C9
:1015900008000121FFF78CFF00280DDB0C264643D5
:1015A0000B4C301D0019FEF7DFFF2B00A419201D86
:1015B00006C806C3280076BD6C460822002120001C
:1015C00000F061F9012323702B0006CC06C3F1E77C
:1015D0003801001073B5050008000221FFF768FF0D
:1015E00000280DDB0C2646430B4C301D0019FEF77E
:1015F000BBFF2B00A419201D06C806C3280076BD1A
:101600006C4608220021200000F03DF901232370E0
:101610002B0006CC06C3F1E73801001010B5FEF729
:10162000D5FF0A22044B1870044B28201A70FEF7CD
:10163000CAFD034B186010BD380200103A020010BA
:101640003C020010F8B5164C164B22781B780600A9
:101650009B18FF20FE2B21DC134B144D19788A4276
:1016600007D30131C9B2197028688900FEF7AFFDB0
:101670002860300000F0D6F827782B68BF000130D2
:10168000DF19FEF7A0FD23782A689B003860985880
:10169000310000F0D0F82078431C2370F8BDC0461C
:1016A00039020010380200103A0200103C0200100B
:1016B00070B505000024094B1B78A34201DCFF2014
:1016C00009E0074BA2001B682800D15800F0BAF8C7
:1016D000002801D1E0B270BD0134ECE739020010FE
:1016E0003C02001010B50400FEF772FFFF2808D17D
:1016F0002000FFF7DDFFFF2803D0024B1B78C01846
:10170000C0B210BD38020010F8B516000021082242
:10171000040000F0B8F83000FFF7E4FFFF2803D022
:101720000623A08023700AE0300000F07BF8451CFF
:101730002800FEF748FD071E03D106232370200072
:10174000F8BD2A00310000F095F83800FFF77AFF65
:10175000E6E710B50400FFF7C5FFFF2802D120001F
:10176000FFF770FF10BD000010B5084B010018789E
:10177000884205D9064C2000FEF742FF200010BD2C
:10178000044B091A1B688900C858F8E73802001092
:10179000280200103C020010704737B508790D0090
:1017A0006C46FFF7E1FF01002000FEF7B2FF0CCC12
:1017B0000CC537BD10B500210820FFF715FD014B02
:1017C000186010BD58020010030000200F2B08DC29
:1017D000074B1A5C002A05D101321A54054B00014F
:1017E000C018704701304028F3D10020F9E7C04607
:1017F0006C0600106C02001000230F2900DD0300AE
:10180000180070470F22054BC31AD817104000224A
:10181000C018034B00111A547047C0466C020010E8
:101820006C06001002000300981A0133591E097853
:101830000029F9D170470023CA5CC2540133002A41
:10184000FAD17047002210B5845C8B5CE31A02D198
:101850000132002CF8D1180010BD020010B5137829
:10186000541C2200002BFAD1CA5CE2540133002A36
:10187000FAD110BD002310B5934200DB10BDCC5C43
:10188000C4540133F8E7002A00DC70470170013AC4
:101890000130F8E7024A1368013313607047C0460D
:1018A00040020010034A1368181813688342FCDDD5
:1018B0007047C04640020010054B202219680028DE
:1018C00002D00A431A60704791431960FBE7C04693
:1018D000FC3F015010B50001FFF7E4FF10BD000010
:1018E0000120024B1B681B0998437047FC3F0150C5
:1018F000074B084A20211A600722074B1A60D023A1
:10190000064A1360064A1160064A13607047C046D3
:1019100014E000E07FBB000010E000E0A0400440C5
:10192000008001509440044002B4714649084900C7
:10193000095C49008E4402BC7047C04603B471463E
:10194000490840004900095A49008E4403BC7047C9
:1019500003460B437FD4002243088B4274D3030910
:101960008B425FD3030A8B4244D3030B8B4228D3B1
:10197000030C8B420DD3FF22090212BA030C8B42D7
:1019800002D31212090265D0030B8B4219D300E077
:10199000090AC30B8B4201D3CB03C01A5241830BFC
:1019A0008B4201D38B03C01A5241430B8B4201D3AC
:1019B0004B03C01A5241030B8B4201D30B03C01AD5
:1019C0005241C30A8B4201D3CB02C01A5241830A4F
:1019D0008B4201D38B02C01A5241430A8B4201D37E
:1019E0004B02C01A5241030A8B4201D30B02C01AA8
:1019F0005241CDD2C3098B4201D3CB01C01A52410F
:101A000083098B4201D38B01C01A524143098B4297
:101A100001D34B01C01A524103098B4201D30B0180
:101A2000C01A5241C3088B4201D3CB00C01A5241A5
:101A300083088B4201D38B00C01A524143088B426A
:101A400001D34B00C01A5241411A00D20146524103
:101A5000104670475DE0CA0F00D04942031000D322
:101A60004042534000229C4603098B422DD3030A77
:101A70008B4212D3FC22890112BA030A8B420CD387
:101A8000890192118B4208D3890192118B4204D3B0
:101A900089013AD0921100E08909C3098B4201D330
:101AA000CB01C01A524183098B4201D38B01C01A6A
:101AB000524143098B4201D34B01C01A52410309E1
:101AC0008B4201D30B01C01A5241C3088B4201D390
:101AD000CB00C01A524183088B4201D38B00C01A3D
:101AE0005241D9D243088B4201D34B00C01A524114
:101AF000411A00D20146634652415B10104601D3A1
:101B00004042002B00D54942704763465B1000D32A
:101B1000404201B5002000F005F802BD0029F8D0D0
:101B200016E770477047C0463D00233C25733A25B1
:101B30003038783E004D52425F54545F5858282543
:101B400064290000310200005F0200006F02000003
:101B50009502000085030000B1020000D9020000D8
:101B60000903000067040000730400005B04000028
:101B7000890400008B040000A10400009F04000001
:101B8000190400001B0400001D04000047040000AD
:101B9000330400003104000097120000C712000057
:101BA000DF12000011130000311300004B1300007E
:101BB000651300007F13000097130000CD13000091
:101BC0000314000011140000131400002911000078
:101BD00015140000151000003110000091100000D5
:101BE000A9100000C1100000C110000099170000EA
:101BF0009B1700009B17000029110000001D000228
:101C000000400C170080000601400003008000A087
:101C10000080000601400483008040A00080000690
:101C2000013FFF83008000A0008000060140048384
:101C3000008040A00080000601400003008000A05A
:101C40000080000601400E83008040A00080000656
:101C5000013FFF83008000A00080000601400E834A
:101C6000008040A00080000700BFF318008000053E
:101C70000000004A1D1E000F2800181632173318E6
:101C80003419351A361B371C381D171E1C1F3920F6
:101C90003A213B223C230F24000F27001F01200282
:101CA000210322040F052306240725081D09260AFF
:101CB0001E0B270C280D290E2A0F2B102C112D126C
:101CC0002E132F1430150031250F2600003D2B0F49
:101CD0002C3E2D3F2E000F2A000F2900004F626A74
:101CE00065637400537472696E67004E696C0050CE
:101CF000726F630046616C736500547275650046CF
:101D000069786E756D0053796D626F6C0041727207
:101D100061790052616E67650048617368004172C5
:101D20006475696E6F00747275650066616C7365C9
:101D300000746F5F7300494E505554004F55545016
:101D4000555400494E5055545F50554C4C55500019
:101D500048494748004C4F57002B003D3D3D003C53
:101D60003C005B5D005B5D3D002829002D003E3E90
:101D7000006C65640077616974007075747300218C
:101D800000213D003C3D3E00636C61737300617453
:101D900074725F72656164657200617474725F6110
:101DA00063636573736F720062746E006F757400A5
:101DB000696E00616E610070776D00636C73006C1A
:101DC000630073637200696E6B657900726E640004
:101DD0007072696E740063616C6C002D40002A2A79
:101DE00000250026007C005E007E006162730074A6
:101DF000696D65730063687200746F5F6900616C80
:101E00006C5F73796D626F6C73006964326E616DC3
:101E10006500746F5F73796D00000000DC1C0000CA
:101E2000DD1C0000E41C0000EB1C0000EF1C0000A7
:101E3000F41C0000FA1C0000FF1C0000061D00003E
:101E40000D1D0000131D0000191D00001E1D0000C7
:101E5000261D00002B1D0000311D0000361D000056
:101E60003C1D0000431D0000501D0000551D0000DA
:101E7000591D00005B1D00005F1D0000621D000079
:101E8000651D0000691D00006C1D00006E1D000036
:101E9000711D0000751D00007A1D00007F1D0000EF
:101EA000811D0000841D0000881D00008E1D0000A3
:101EB0009A1D0000A81D0000AC1D0000B01D000010
:101EC000B31D0000B71D0000BB1D0000BF1D0000BA
:101ED000C21D0000C61D0000CC1D0000D01D00006A
:101EE000D61D0000DB1D0000DE1D0000E11D00000E
:101EF000E31D0000E51D0000E71D0000E91D0000D6
:101F0000EB1D0000EF1D0000F51D0000F91D000095
:101F1000FE1D00000A1E0000121E00004D657468C0
:101F20006F644E6F74466F756E642025640A0025D9
:101F3000782025780A00746F5F7300282900554EB9
:101F40004B4E4F574E203E3E20253032580A0066F9
:101F5000616C7365003C2350726F633A25303878AA
:071F60003E0074727565007C
:00000001FF
